:100000000C9420010C943D010C943D010C943D0195
:100010000C943D010C943D010C943D010C943D0168
:100020000C943D010C943D010C94AB1B0C947F1C73
:100030000C948F160C943D010C943D010C943D01E1
:100040000C943D010C943D010C943D010C943D0138
:100050000C943D010C9416170C943D010C943D0139
:100060000C943D010C943D010C943D010C943D0118
:100070000C943D010C943D010C943D010C943D0108
:100080000C943D010C943D010C943D010C943D01F8
:100090000C943D010C943D010C943D010C943D01E8
:1000A0000C943D010C943D010C943D016B016A01DF
:1000B000690168018A008900880087007300720066
:1000C000710070006F006E006D006C006B006A00C4
:1000D00069006800100353006E0061006700700043
:1000E000610064000000100346006C0065006800B9
:1000F00072006100640000000403090409023B006F
:10010000020100A0FA090400000103010100092115
:1001100011010001224000070581030800010904C4
:100120000100010300000009211101000122B600B5
:1001300007058203200001120100020000000843AD
:1001400044505301000102000105010902A101858B
:10015000020901A1000509190129081500250195C9
:1001600008750181020501093009311581257F9546
:10017000027508810609381581257F95017508816A
:1001800006050C0A38021581257F95017508810640
:10019000C0C005010980A101850319012AB7001516
:1001A0000126B700950175108100C0050C0901A159
:1001B00001850419012AA002150126A002950175E6
:1001C000108100C005010906A1018506050719E097
:1001D00029E7150025019508750181020507190019
:1001E00029EF1500250195F0750181020508190117
:1001F0002905950575019102950175039101C005C9
:10020000010906A101050719E029E7150025019557
:1002100008750181029501750881010507190029FA
:10022000FF150026FF0095067508810005081901D5
:100230002905950575019102950175039101C0008D
:1002400011241FBECFEFDAE0DEBFCDBF11E0A0E08A
:10025000B1E0E6EFFDE302C005900D92A238B107D0
:10026000D9F722E0A2E8B1E001C01D92A438B2079C
:10027000E1F70E9434100C94E31E0C94000081E01E
:10028000089581E008950E944101089508950E9413
:1002900046010895A5E0B0E0E0E5F1E00C944F1EC2
:1002A00049835A833091890189819A81311119C01A
:1002B000662399F0222389F00E943C07182F682FAB
:1002C00089819A810E94190769817A81812F0E9410
:1002D000AF0D2596E3E00C946B1E0E942A07182FA1
:1002E000F3CF0E943C0769817A81F1CFFC01262F70
:1002F000408151816281738184810E944A01089505
:1003000081E00895CF93DF93EC0160E00E947601D5
:10031000BE010E944701DF91CF9108950E94EF0E28
:1003200008950E94F30E089508950E94E4050E9426
:1003300094012FEF84E39CE0215080409040E1F74E
:1003400000C0000008950E9495010E943A17089588
:100350000E9495010E944B1708950F931F93CF930E
:10036000DF938C0161E00E947601EC01B8010E94EC
:100370004301811106C080E0DF91CF911F910F9161
:100380000895B801CE010E94C1148823A1F3B801D9
:10039000CE010E94C512882371F3B801CE010E94DC
:1003A0003314882341F3F8018281882361F0CB352F
:1003B000FDE5DF0701F158F4C115ECE5DE0791F02A
:1003C000CF3DDC4591F0C8010E943F01D5CFCD352E
:1003D0008DE5D80769F090F0C83ADD45A1F70E9495
:1003E000A801C9CF0E94A301C6CF0E94F60BF7CF88
:1003F0000E94340BE8CF0E943E0BE5CF0E94420BD7
:10040000E2CF0E946C160E941E0208950E942202F2
:100410000E947116089508950E940B02089581E0CC
:1004200008950E940F0208950895CF93C82F0E9447
:100430000C028C2F0E941102CF91089580E00E943F
:10044000150208950E941D150E9415020895CF936C
:100450000E941D15C82F809184018C1779F0C093DC
:1004600084010E94FB16609385017093860180933E
:100470008701909388018C2F0E941502CF910895D7
:10048000ABE0B0E0E6E4F2E00C94501E4F835887F6
:1004900069877A878B8761110E947F0A1E821D827D
:1004A00085E0FE013796DE01119601900D928A9546
:1004B000E1F78C819D81892B61F449815A816B819F
:1004C0007C818D819E810E94A8092B96E2E00C948C
:1004D0006C1E89819A8189238F3F79F3CE01019621
:1004E0000E9480018111E9CFF0CFFC0180819181D0
:1004F0000E946E070895CF93C82F8823C9F08238D1
:10050000C9F40E941D1581FD13C089E30E94370ABA
:100510000E94A00A2FEF87EE93E021508040904088
:10052000E1F700C0000089E30E943F0A0E94A00A90
:10053000CF9108958338A1F40E941D1580FDF8CF56
:1005400083E50E94370A0E94A00A2FEF81EE94E013
:10055000215080409040E1F700C0000083E5E4CFE7
:100560008438A1F40E941D1582FDE2CF87E40E9429
:10057000370A0E94A00A2FEF81EE94E021508040BC
:100580009040E1F700C0000087E4CECF8CEF8C0FE5
:10059000813A90F46C2F80910001909101010E94AA
:1005A0009215882329F08C2F0E943F0A0E94A00AEE
:1005B0008C2F0E94370ABACF80E28C0F883048F423
:1005C000C77081E001C0880FCA95EAF70E94620AED
:1005D000ADCFEBE5EC0FE33040F4F0E0EB5BFE4F2A
:1005E000808190E00E945215A3CFE8E5EC0FE7313F
:1005F00050F4F0E0EE0FFF1FE95EFE4F8081918125
:100600000E94681595CFCD3E08F492CF8C2F0E94A2
:10061000B8100E948B118CCF882309F455C0823802
:1006200079F40E941D1581FF4FC089E30E94370AAB
:100630000E94A00A89E30E943F0A0E94A00A08952E
:10064000833859F40E941D1580FF3EC083E50E9447
:10065000370A0E94A00A83E5EECF843859F40E943D
:100660001D1582FF31C087E40E94370A0E94A00A4C
:1006700087E4E1CF9CEF980F913AE8F290E2980F6F
:10068000983050F4877091E001C0990F8A95EAF78D
:10069000892F0E94680AD1CF9BE5980F933028F4E8
:1006A00090E080E00E945215089598E5980F9731E8
:1006B00028F490E080E00E94681508958D3E20F0B7
:1006C0000E9412110E948B1108951F93CF93DF9304
:1006D000182FEB010E947B02209739F4812F0E9492
:1006E0000C03DF91CF911F9108958FE99FE001974F
:1006F000F1F700C000002197EFCF70E060E0893390
:1007000011F460E570E00E9465030895882321F0EC
:100710000E94620A0E94A00A0895882321F00E9484
:10072000680A0E94A00A0895B0E0A0E0EAE9F3E0B8
:100730000C94491E6C01D62FC72FFC011281F58045
:10074000F2949FE0F9220E94580AE82E8823B9F01B
:10075000E12E1123A1F08C2F807F803421F080E2E4
:100760008D0F8830D0F08091680282FF16C082E041
:100770000E94030B0E94580A91E0E82EE926BC2E45
:10078000B2948FE0B822FBE0FB1508F468C0EB2DB3
:10079000F0E0EB51F14E0C943A1EE12CF0CF0C2F0F
:1007A0000F70C07F11F00295007F112399F0002394
:1007B00059F080E28D0F883010F0D11107C0802FE2
:1007C0000E94620A0E94A00A8D2F41C0802F0E94C1
:1007D000720AF8CF8D2F0E940C03002309F43FC04A
:1007E00080E28D0F883010F0D11104C0802F0E945C
:1007F000680A03C0802F0E94780A0E94A00A2FC0B6
:100800000C2F0F70C07FC03211F00295007FDD23E6
:1008100081F0D13009F463C0112309F46DC0FF20C9
:1008200009F463C0F601858180FFCECF8F70858388
:100830005CC08091680282FD33C0112359F000230F
:1008400029F0802F0E94620A0E94A00A80E00E9484
:100850007B0205C080E00E940C030111C7CFEB2D85
:10086000E850FF0B349720F40E941D150E941502DA
:10087000EE2089F00E94540A80FD0DC0F60112821C
:100880000E944E0A0E947706C6010E94A4050E949B
:100890004E0A0E948706CDB7DEB7E9E00C94651ECC
:1008A000112389F0F11006C00E94820A802B0E9459
:1008B0008603D5CF21E0F212F7CF0E94820A802B67
:1008C0000E94890ACCCFF11006C00E94960A802FA0
:1008D0000E948D03C4CF31E0F31609F2F6CF112345
:1008E00031F085E08F1508F4BACF802FE0CF94E087
:1008F0009F1508F4B4CFEBCFFF2049F3D93349F467
:10090000FFEF27EE33E0F15020403040E1F700C028
:1009100000008D2F0E940C03A2CF8C2F8695869508
:10092000837069F0813009F09ACF8D2F9C2F9370DE
:10093000111102C090E080E00E94681590CF8D2FC9
:100940009C2F9370111102C090E080E00E9452151C
:1009500086CF8D2F112329F00E94B8100E948B1191
:100960007ECF0E941211FACF8C2F8370A1F5111146
:1009700076CF4D2F429546954770440F440F2D2F4B
:100980002F7030E0042E02C0220F331F0A94E2F7CA
:1009900090E080E0D4FF09C08FE090E002C0880FB3
:1009A000991F4A95E2F780959095C695C695C370B4
:1009B000822B932BC23049F058F4C13019F00E94B9
:1009C00045064DCF0E943C064ACF0E944E0647CFB7
:1009D0000E94390644CF8695112311F08C2F817027
:1009E000882309F43CCF4D2F429546954770440F1C
:1009F000440F2D2F2F7030E0042E02C0220F331F22
:100A00000A94E2F790E080E0D4FF09C08FE090E024
:100A100002C0880F991F4A95E2F780959095C69578
:100A2000C695C370822B932BC23049F058F4C13065
:100A300019F00E94B20613CF0E94A90610CF0E949F
:100A4000BB060DCF0E945D060ACFCF70112329F09F
:100A50008C2F0E9477068D2F2ACF8D2F0E948D0319
:100A60008C2F0E948706FBCED23F51F160F4D03F1D
:100A7000B9F0D13F81F0112309F449C0F110A4CE9F
:100A80008C2F8F7121C0D33F11F1D43FA1F78091FA
:100A9000680282FD26C08C2F8F71112311F314C0C0
:100AA000112349F084E08F1508F4D9CE8C2F8F7173
:100AB0000E949906D4CE95E09F1508F4D0CEF6CFCB
:100AC0008C2F8F711111CDCF0E947706C8CE1123C4
:100AD00029F08C2F8F710E946B06C1CE0E94660692
:100AE000BECE112349F0CF718C2F0E94770663E0B0
:100AF0008C2F0E94E50AB3CE81E00E94030BE1E057
:100B0000EF1508F0ACCE82E00E94030BA8CEF110E6
:100B1000F5CE8C2F8F71A5CF0F931F93CF93DF93BB
:100B2000EC01688179818A810E9479078C010E9499
:100B3000C4060E943806B801CE010E949403DF91DA
:100B4000CF911F910F910895CF93DF93EC018B818B
:100B50009C81892B29F08881998189238F3F51F4C9
:100B6000DF91CF910895CE010E948C05CE010E94A5
:100B70008201F6CFCE010E94AD018111F4CF0E9417
:100B8000580A882369F38A81882351F38091680287
:100B900082FFE6CF82E00E94030BE2CF90E080E08C
:100BA0000E94521590E080E00E9468150E947F0A22
:100BB0000E94A00A0E94A7110E948B1108950E9412
:100BC000470A0E94CE0508950E946F0A0E94DF0521
:100BD000089592959F70963091F058F4925F9F70AF
:100BE000923058F4803F19F030F4883E30F481E0C0
:100BF00008959A5FF4CF843FD1F380E00895883E52
:100C0000B0F3813FD1F7F3CFFC0183819481892B2D
:100C100029F08081918189238F3F11F480E008952C
:100C2000808191810E946E070E94E9050895A5E0E8
:100C3000B0E0EDE1F6E00C94501E2596E2E00C9455
:100C40006C1EA6E0B0E0E7E2F6E00C94501E26969B
:100C5000E2E00C946C1E08950E942B0608950E94F9
:100C60002C0690939901809398010E94CE050895D7
:100C700008950E942F0608952091980130919901BE
:100C8000822B932B0E942F0608952091980130917A
:100C90009901822393230E942F06089520919801A1
:100CA00030919901822793270E942F0608950E9470
:100CB0002B0608950E94570608950E945A069093A5
:100CC0009701809396010E94CE05089590E080E000
:100CD0000E945D06089521E030E0A90102C0440FA2
:100CE000551F8A95E2F7CA010E945D06089521E02A
:100CF00030E002C0220F331F8A95E2F780919601FF
:100D000090919701822B932B0E945D06089521E01C
:100D100030E002C0220F331F8A95E2F7209530950C
:100D20008091960190919701822393230E945D0602
:100D3000089521E030E002C0220F331F8A95E2F7C8
:100D40008091960190919701822793270E945D06DA
:100D500008952091960130919701822B932B0E9448
:100D60005D06089520919601309197018223932387
:100D70000E945D0608952091960130919701822787
:100D800093270E945D0608950895262F277091E00D
:100D900001C0990F2A95EAF723E0769567952A9581
:100DA000E1F7660F771F660F771FFA01E60FF71F4F
:100DB00050E040E0682F70E08191DF0111979B01C6
:100DC000042E02C0369527950A94E2F721702195EA
:100DD0002827292328272C934F5F5F4F4430510544
:100DE00059F70895A82FA77023E0969587952A951F
:100DF000E1F7880F991F880F991FFB01E80FF91F72
:100E000050E040E080E0219130E00A2E02C03695AB
:100E100027950A94E2F721703327042E01C0220F90
:100E20000A94EAF7822B4F5F5F4F4430510559F720
:100E30000895262F953068F4843058F434E0939F59
:100E4000B0011124680F711D4AE851E0822F0E9401
:100E5000C5060895953070F4843060F444E0949FA2
:100E6000900111246AE871E0820F932F911D0E9476
:100E7000F206089580E00895B0E0A0E0E2E4F7E033
:100E80000C94491E7C01009196011091970180916C
:100E9000980190919901082B192BCFE0D0E0CC2438
:100EA000C394D12CBC2EC6010C2E02C0880F991FF2
:100EB0000A94E2F780239123892B49F4219790F734
:100EC000B12C8B2DCDB7DEB7E9E00C94651EB701D0
:100ED0008C2F0E94CA0D019789F3F3CFCF93DF9334
:100EE000EC010E943C07BE010E94CA0DDF91CF9128
:100EF00008951F93CF93DF93EB019091890199237C
:100F000039F0CB010E946E07DF91CF911F910895B8
:100F1000882369F0CB010E943C07182F682FCE016F
:100F20000E941907BE01812F0E94CA0DEDCFCB018F
:100F30000E942A07182FF6CF1F93CF93DF93C091FB
:100F40009A0116E080919B018C1304C0DF91CF9130
:100F50001F910895D0E01C9FF0011D9FF00D1124FA
:100F6000E456FE4F40815181628173818481958175
:100F70000E9421062196C770E5CF4091CC01509187
:100F8000CD016091CE017091CF018091D0019091FF
:100F9000D1010E94210608951F93CF93DF93809182
:100FA000D101807F09F049C08091CE01882309F4E6
:100FB00044C080919A01C0919B016091CC017091D5
:100FC000CD01A091CF01B091D001D62FD72316E04B
:100FD000C81799F190E0109711F0DF3F19F40196CE
:100FE0008770F6CF189F9001199F300D1124F901D9
:100FF000E456FE4F41814713F2CF40814613EFCFB5
:1010000042814111ECCF438154814A1B5B0B483C28
:10101000510528F78091D1018F7080618093D101B3
:10102000F901EF55FE4F80818F70806180838CECD9
:1010300091E00E94A4050E949C07DF91CF911F912F
:101040000895A1E1B0E0E7E2F8E00C94481E8C01BD
:1010500085E0F801DE011D9601900D928A95E1F779
:10106000F801E2808CECC82E81E0D82E6091CF018F
:101070007091D0016115710509F44EC19091CC01B8
:101080002091CD01892F82238F3F09F445C14081F2
:101090005181A380B480F090CE01F501E61BF70BDF
:1010A000FF2009F4EAC08091D101382F307FE83C5D
:1010B000F10508F0A3C031116DC0FE2C251316C038
:1010C000941314C0E11012C08F7080618093D1011D
:1010D0000E94BD07C6010E94A4058091D101F801BC
:1010E00085838F2D6196EAE00C94641EA114B104EF
:1010F00029F0842F85238F3F09F027C180E0F82F46
:10110000F170DF2E80FF3CC080919A0120919B01FD
:1011100036E0821315C04D875E878D859E850E94BF
:101120006E07292F22952F702230F0F0243018F509
:101130009F70F1F0F8019581907FD1F4D12C1EC001
:1011400090E0389FF001399FF00D1124E456FE4FD6
:101150006181651306C06081641303C06281E61279
:101160000FC001968770D5CF9F7011F0882331F39F
:10117000805E883018F3C8010E94A405FD2CB1CF11
:10118000EE2009F4AECF8091D10181608093D1012E
:10119000F12CA7CF251306C0941304C0F801EE204C
:1011A00009F487C0C8010E940406882319F1EE20C3
:1011B00009F18091D101803270F02091CC01309101
:1011C000CD0138872F831986BB86AA868C87CE01EE
:1011D00007960E94A40586E0F801ACECB1E001900E
:1011E0000D928A95E1F70E94CC070E94BD07FF246B
:1011F000F39477CFC8010E94A405F9CF311113C031
:101200007A2DB98AA88A6E2D89890E9417068CECDE
:1012100091E00E94A40586E0F60111928A95E9F713
:101220000E94BD07B5CF25130FC094130DC0E11068
:101230000BC0F8018583C8010E94A40586E0F60171
:1012400011928A95E9F74DCFC8010E9404068823C0
:1012500089F2EE2079F28091D101803208F4BBCF7F
:101260002091CC013091CD013A8329831B82BD822C
:10127000AC828E83CE010196ACCFE83CF10508F03C
:101280003EC0FE2CEE2009F4B5CF25132AC09413DE
:1012900028C08091D10180FD1BC0982F907FC1F0A4
:1012A000F8018583903F31F0982F907F905F8F7089
:1012B000892B8583C8010E94A40586E0F801ACEC67
:1012C000B1E001900D928A95E1F70E94BD0709CF28
:1012D00086E0F801ACECB1E001900D928A95E1F75F
:1012E00000CFC8010E940406811175CF8091D10101
:1012F00081608093D101C8010E94A405F2CE7A2DAD
:10130000B98AA88A6E2D89890E94170686E0F6019F
:1013100011928A95E9F7D9CFEE2009F46BCFC80175
:101320000E940406F82E882309F464CF86E0F801B1
:10133000ACECB1E001900D928A95E1F78CEC91E074
:101340000E9475020E94CC07C0CF81E08E25D7CEC7
:10135000ACE0B0E0EEEAF9E00C944F1E4F83588702
:1013600069877A878B879C87CE0107960E94210820
:10137000882369F08A859B85892B39F04F815885B0
:10138000842F85238F3F09F06BC016E05FC086E095
:10139000FE013796DE01119601900D928A95E1F7D4
:1013A0008A859B85892B89F388859F8189238F3F37
:1013B00061F320919B0130E0C90101968770992764
:1013C00040919A014817190671F40E94E4051092A1
:1013D0009B0110929A0186E0ECECF1E0DF011D9296
:1013E0008A95E9F7D2CF96E0929FD001939FB00DF6
:1013F0001124A456BE4FFE01319601900D929A958C
:10140000E1F780939B010E949C07BFCF819FC001A1
:10141000112484569E4F0E9421088823E9F0E09110
:101420009A011E9FF0011124E456FE4F4081518124
:1014300062817381848195810E94210680919A0145
:1014400090E001968770992780939A0180919A0184
:1014500090919B018913DACF2C96E3E00C946B1EDC
:1014600069857A858B859C850E9421068ECF682FA1
:1014700080910001909101010E9412160895682F39
:1014800080910001909101010E94201608958091A1
:101490000001909101010E942E1608958091F201A1
:1014A00085958595859508958091F20187700895B9
:1014B0009091F201977081E009F480E008958091A5
:1014C0001502089590911502892B809315020895B5
:1014D000809590911502982390931502089510928B
:1014E0001502089590911402892B80931402089597
:1014F000809590911402982390931402089510926D
:10150000140208958091F301089508950E94850AB8
:1015100008959091680292FF08C09091F301981786
:1015200021F08093F3010E94860A08958091F301CF
:10153000882329F01092F30180E00E94860A089522
:10154000CF93DF93E0910001F091010180911502AA
:101550008083E0910001F09101018081909114025B
:10156000892B80839091F301992381F0E091000110
:10157000F09101018081892B8083809100019091FD
:1015800001010E947E1581110E94960AC0910001FE
:10159000D091010140E250E062ED71E0CE010E9485
:1015A0008B1E892B59F080E2FE01A2EDB1E0019083
:1015B0000D928A95E1F7CE010E942A15DF91CF9115
:1015C000089508950E94E10A08959091680292FF9B
:1015D00011C098E0899F90011124622B6093F20161
:1015E0000E9477068091F2018595859585950E94E8
:1015F000E20A08950E94770608951092F20180E0B1
:101600000E94E20A08959091F201809589238093C7
:10161000F201282F277091F4282F082E000C330B8D
:101620009217130659F09091680292FF07C08595B2
:10163000859585950E9487060E94FD0A08959091E0
:10164000680292FB222720F9281769F080FB92F9A3
:101650009093680280916702909168020E94700BDB
:1016600082E00E94030B08958091680282FB882724
:1016700080F991E089270E941F0B089581E00E9464
:101680001F0B089580E00E941F0B08956FEF7FEFFE
:1016900090E080E00E94CD1E089590E080E00E94DE
:1016A000A91E21E0883E9E4F09F020E0822F089578
:1016B00082E090E00E94A11E089583E090E00E94E5
:1016C000A11E0895CF9384E090E00E94A11EC82F30
:1016D00082E290E00E94A11E982F8C2FCF91089556
:1016E000CF93C92F682F84E090E00E94AF1E6C2F2B
:1016F00082E290E00E94AF1ECF910895AB01BC0141
:101700008FE090E00E94C11E0895AB01BC0183E10F
:1017100090E00E94C11E089560E070E0CB010E943D
:10172000850B089560E070E0CB010E947E0B0E9463
:101730008C0B089568EE7EEF90E080E00E94CD1E55
:1017400060E082E090E00E94AF1E60E083E090E005
:101750000E94AF1E109299011092980160E084E0FF
:1017600090E00E94AF1E64E082E290E00E94AF1E13
:1017700060E085E090E00E94AF1E60E086E090E0CF
:101780000E94AF1E6FEF87E090E00E94AF1E40E026
:1017900050E0BA0188E090E00E94C11E60E08DE058
:1017A00090E00E94AF1E40E050E0BA0188E190E076
:1017B0000E94C11E60E087E190E00E94AF1E40E001
:1017C00050E0BA018CE190E00E94C11E70E060E040
:1017D00080E290E00E94CD1E40E050E0BA0188E136
:1017E00090E00E94C11E0E94920B08950E949A0BE5
:1017F0000895682F8EE090E00E94AF1E08950E9429
:10180000FB1660932102709322028093230290932F
:10181000240260931D0270931E0280931F02909316
:1018200020020895089508950E94130C08950895C4
:101830000E94170C089584EB9EE00E9413150E94ED
:10184000120C0E94140C089581E008950E94240C4B
:101850000895089508950E94290C0E942A0C089565
:101860000E94D00E0E94140208950E94E6160E9463
:10187000970F0E94300C0E94180C0895AAE0B0E067
:10188000E4E4FCE00C94481E0E94AD0F88E1A82E11
:1018900082E0B82E750110E0F70101917F01812FE0
:1018A0000E94F60E1F5F153009F440C00817A1F31F
:1018B0008091250281FD0E94FC0E0E94260CC82EFC
:1018C00010E0812F0E94F60E082FF50181915F0133
:1018D000081731F1F12CEE24E394D02ED8268D2D6B
:1018E0008E21B1F0CC20A1F0FE821F8391E0802FE9
:1018F0008E2109F490E098870E94EF168160782F7E
:101900009A8789874E815F8168858A850E94400217
:10191000F394EE0CF4E0FF12E2CFF501319700836F
:101920001F5F153071F60E94FF0B20C00813C0CF57
:101930000E94EF168C0180911602909117020817F1
:101940001907A1F08FEF89838A831B820E94EF160B
:101950008160782F9D838C8349815A816B818D8131
:101960000E94400210931702009316020E94C911B0
:101970000E9427022A96EAE00C94641ECF93DF931C
:101980000E94CF0DEC01811521E5920708F042C0BD
:10199000811530E5930708F09FC0883E910530F52A
:1019A000803E910508F094C0883A910588F4853A04
:1019B000910508F086C08130910509F489C000972F
:1019C00009F486C0049708F083C0D0E0C0E080C06E
:1019D0008F3B9105D0F7C85AD0E0CC0FDD1FC85B14
:1019E000DE4F0990D881C02DD46472C0811540E2C9
:1019F000940750F4C11581E0D80708F069C0CD3EC6
:101A0000D10518F3D06564C081159044F0F2DF7001
:101A1000D06A5EC0811535E5930718F5811544E558
:101A2000940708F085C0C11583E5D80708F06CC09D
:101A3000C11522E5D20708F462C0CE018370992750
:101A400021E030E002C0220F331F8A95E2F7C695ED
:101A5000C69580E2C89FE0011124C22BD32BDC681D
:101A600037C0811539E59307A8F4811548E5940737
:101A700008F063C0C11586E5D80708F0A6CF8C2F03
:101A80000E94710EC82FD0E0DC2FCC27CC27DF714D
:101A9000D0621EC081152AE5920708F453C0905603
:101AA0008115904208F091CF8D2F8F710E94710E99
:101AB00090E0982F882788279F719C012C2BE901A3
:101AC000E7CFC55AD0E0CA58DE4FC881D0E0D06415
:101AD000CE01DF91CF9108958370992721E030E006
:101AE00002C0220F331F8A95E2F7C695C69540E2E1
:101AF000C49FE0011124C22BD32BDD68E9CFDC2F7A
:101B0000CC27C16FD06AE4CFCE018370992721E042
:101B100030E002C0220F331F8A95E2F7C695C695C2
:101B200040E2C49FE0011124C22BD32BDA68D0CF4E
:101B3000D82FCC27C46FD06ACBCFD82FCC27C06F7B
:101B4000D06AC6CF8F700E94710E34E0D695C795CB
:101B50003A95E1F7CF709C2FEC01D069B9CF753081
:101B6000B0F46430A0F4E72FF0E095E0899FE00D39
:101B7000F11D1124EE0FFF1FEE0FFF1FE60FF11DE9
:101B8000EE0FFF1FE455FF4F85919491089580E07B
:101B900090E008950E94AF0D0E94BE0C0895823817
:101BA0009105B9F1B0F48133910509F47DC048F491
:101BB0008932910509F46DC08A32910509F47BC020
:101BC00008958533910509F45FC08933910509F1C2
:101BD0000895833E9105D9F138F4803E910529F1AD
:101BE000823E910579F10895863E9105D9F1873EAF
:101BF000910509F43EC0843E910541F520916802AB
:101C000021FF24C08091670284FD19C087EE90E017
:101C1000089520916702237009F05AC0209168024C
:101C200023FF14C089E290E008952091670220FD0F
:101C300038C03091680230FF09C024FF43C090E0F3
:101C400080E008952091670222FDF7CF089520914A
:101C5000670222FD3AC03091680230FD39C024FF8E
:101C6000F5CFEDCF2091670223FFF0CF24FDE7CF22
:101C7000CDCF2091670223FD2EC03091680231FF45
:101C8000EECF84EE90E008952091670225FFDECF2D
:101C9000C9CF2091670225FD21C02091680223FF52
:101CA000D5CF89E390E0D2CF2091670226FFCECF37
:101CB0008AE290E008952091670226FFC7CF81E372
:101CC00090E0089583EE90E0089582EE90E008950C
:101CD00080EE90E0089586EE90E0089585E390E030
:101CE00008959091670292FF06C0282F287128302E
:101CF000F9F4877F846093FF06C0282F287128316C
:101D0000F1F4877E84612091680220FF06C0382F9D
:101D100038713830D9F4877F816021FF06C0282FC1
:101D200028712831D1F4877E816194FD877E0895E2
:101D3000282F24712430F9F68B7F8860DCCF282F80
:101D40002471243101F78B7E8861DDCF382F31710A
:101D5000313019F78E7F8860E0CF282F2171213133
:101D600021F78E7E8861E1CF80E008950E94460BC6
:101D700008950E94AD0F8FE39CE90197F1F700C031
:101D800000000E94AD0F80E00E94F60E80FF04C0AC
:101D90000E94B60E0E943A1708950E94B90E089547
:101DA0000E944D0B811102C00E94F60B0E94580B3D
:101DB000809325020E94620B9093680280936702D1
:101DC0000E94CD0E0E945D0B90E00E94390680912A
:101DD0009601909197010E945A06089508950E94D5
:101DE000EE0E089508950E94F20E0895E82FF0E097
:101DF000E259FD4F80810895089580EA8A95F1F7B0
:101E0000089500C008950E94FD0E0895F894E82FEB
:101E1000E295EF70F0E031A1282F2F7081E090E083
:101E200001C0880F2A95EAF7982F9095932391A3E4
:101E300092A1892B82A378940895CF93DF93CDE765
:101E4000D1E089918F3F11F00E94060F81E0C238E6
:101E5000D807B9F784EF0E94060F85EF0E94060F9E
:101E600086EF0E94060F87EF0E94060FDF91CF9149
:101E70000895B0E0A0E0EFE3FFE00C944A1EEC010F
:101E8000D62E062F10E0C80183589E4F7C01FC011E
:101E900080818F3F09F444C0F894E82FE295EF70F9
:101EA000F0E091A18F7021E030E001C0220F8A950F
:101EB000EAF7892F822B81A382A12095282322A3D0
:101EC00078940E94010FE9E7F1E031E0C12C219103
:101ED0002F3F59F1A22FA295AF70B0E090968C9150
:101EE00090E02F7002C0959587952A95E2F780FDC6
:101EF0001CC0832FC82A330F81E0ED37F80739F76C
:101F0000F70180818F3F11F00E94060F61E0C11040
:101F100001C060E08D2D0E94030FC00FD11FC88249
:101F2000CDB7DEB7E8E00C94661E80E0E3CF0E94F8
:101F30001D0F85E0EEE6F2E0DF01982F1D929A95E5
:101F4000E9F7E9E6F2E0DF011D928A95E9F785E01D
:101F50000E94E80F0E948E010895A5E0B0E0E3EB37
:101F6000FFE00C944D1E8E010F5F1F4F85E0F801BE
:101F700011928A95E9F7F12C6F2DC8010E94390F53
:101F8000F394F5E0FF12F8CF45E050E0B80189E6A0
:101F900092E00E948B1E21E0009709F420E0892B3B
:101FA00041F085E0F801A9E6B2E001900D928A9532
:101FB000E1F745E06EE672E089E692E00E94E90F03
:101FC000182F0E949101812F2596E5E00C94691E3F
:101FD0000895CF92DF92EF92FF920F931F93CF93CA
:101FE0006C017B01042F222349F081E080932802B9
:101FF0000E94EF169093270280932602C091280238
:10200000C1110AC0C0E08C2FCF911F910F91FF909A
:10201000EF90DF90CF900895809126029091270253
:102020000E940717059770F310E0A801B601C701D9
:102030000E948B1E892B41F0A801B601C7010E94A6
:10204000981E10922802DFCFC0E0FBCF0E9401193A
:102050000E94350C0E940E1908950E9413190E94C7
:102060003E0C0E942D1908950E9488160E94E718C0
:102070000E941B0C0E9426100E942D100E942B0C07
:10208000FBCF80912F0280FF0DC06091070170E0AF
:10209000660F771F6038710570F56115710569F17C
:1020A000862F089581FF07C06091070184E0689F33
:1020B000B0011124EFCF6091070182FD0AC0809129
:1020C0002E028823A9F02091060160910701821752
:1020D00010F088E0ECCF869FC001112433E0880F18
:1020E000991F3A95E1F7622F70E00E94261ED2CF29
:1020F00068E070E0D5CF8FE7089581E00895809182
:102100002F0280FF0CC06091030170E07595679508
:10211000759567956115710549F1862F089581FFC1
:1021200006C06091030170E075956795F3CF6091EB
:10213000030182FD0BC090912D029923A1F06091C3
:10214000020180910301961738F0682F70E0603823
:10215000710500F38FE70895899FC001112470E095
:102160000E94261EF4CF61E070E0D7CF81E0089591
:102170008D3E31F40E944110819580933302089581
:102180008E3E19F40E944110F8CF8F3E31F40E9428
:1021900041108195809332020895803F19F40E9486
:1021A0004110F8CF893F29F40E947F1080933402B8
:1021B00008958A3F21F40E947F108195F7CF8B3FCD
:1021C00031F40E947F1081958093350208958C3FF1
:1021D00019F40E947F10F8CF9FE0980F983070F4A8
:1021E000815F990B21E030E001C0220F8A95EAF768
:1021F00080913102822B8093310208958D3F31F41A
:1022000080912F02816080932F0208958E3F21F4E8
:1022100080912F028260F7CF8F3FB9F780912F0214
:102220008460F1CF409132028D3E59F480913302A7
:1022300087FF0DC01092330241110BC010922E0285
:1022400008C08E3E81F48091330218169CF344231B
:1022500081F08091340290913502892B09F05AC0A7
:1022600010922D0208958F3E49F447FFF0CF10924F
:102270003202809133028111ECCFE0CF803F19F41C
:102280001416ACF3E4CF90913402893F29F4191667
:10229000F4F610923402DBCF8A3F19F497FFD7CFC0
:1022A000F8CF909135028B3F29F497FFD0CF109251
:1022B0003502CDCF8C3F19F41916CCF3C8CF9FE06F
:1022C000980F983090F4815F990B21E030E0B901CC
:1022D00002C0660F771F8A95E2F7CB018095909137
:1022E0003102892380933102B2CF8D3F31F4809146
:1022F0002F028E7F80932F02AACF8E3F21F48091F0
:102300002F028D7FF7CF8F3F09F0A1CF80912F0251
:102310008B7FF0CF08950E94EF169C0190913202BE
:1023200080913302982B21F030932C0220932B02C2
:102330009091340280913502982B21F030932A023B
:102340002093290280E392E00E944415089586E0DC
:10235000E0E3F2E0DF011D928A95E9F710922E0288
:1023600010922D0210922F020895FC01828181119A
:102370000EC0838181110BC08481811108C091E05E
:102380008581811101C090E0892F8170089581E0DD
:10239000FCCFA6E0B0E0EFECF1E10C944F1E86E03C
:1023A000E0E3F2E0DE01119601900D928A95E1F7EB
:1023B00010923202109233021092340210923502BF
:1023C0008B819C81892B89F080912B0290912C022A
:1023D0000E940717AC0190912E029923C9F18091B8
:1023E00008018417150608F440C08D819E81892B51
:1023F00091F08091290290912A020E940717AC0166
:1024000090912D02992309F471C0809104018417E1
:10241000150608F479C0BE016F5F7F4F80E392E03C
:102420000E944016811105C080E392E00E94B51120
:1024300081110E948B1186E0FE013196A0E3B2E08B
:1024400001900D928A95E1F72696E3E00C946B1EBD
:10245000209109018AE0289F900111242417350753
:1024600020F69F5F90932E0202C09F3FD1F71B8101
:10247000112359F00E9441109FEF11160CF491E0C6
:10248000899F802D1124809332021C81112359F0E1
:102490000E9441109FEF11160CF491E0899F802D4E
:1024A00011248093330230913202332309F49DCFFB
:1024B00020913302222309F498CF45EB3403C00165
:1024C0001124992359F09093320245EB2403900193
:1024D0001124332339F03093330287CF81E0809386
:1024E0003202F3CF81E0809333027FCF2091050148
:1024F0008AE0289F900111242417350708F08BCF1C
:102500009F5F90932D0202C09F3FD1F71D81112341
:1025100059F00E947F109FEF11160CF491E0899FF3
:10252000802D1124809334021E81112359F00E94C2
:102530007F109FEF11160CF491E0899F802D1124DC
:102540008093350230913402332309F464CF209113
:102550003502222309F45FCF45EB3403C001112477
:10256000992359F09093340245EB240390011124F0
:10257000332339F0309335024ECF81E0809334021B
:10258000F3CF81E08093350246CFCF93DF93EC0108
:10259000FB018281882309F464C1C430FDE5DF07B3
:1025A000E0F5CB3F9CE5D90730F49E0122503C4535
:1025B00024313105D8F50E94620B90936802809314
:1025C0006702C231ECE5DE0709F41FC108F06EC0F6
:1025D000C9308CE5D80709F4F2C008F03FC0C53017
:1025E000ECE5DE0709F4DBC058F5C3308CE5D8070D
:1025F00009F4CDC008F0CFC0809167028160C2307D
:10260000DC4509F4AEC080916702909168020E9497
:10261000700B0E94E40580E009C0C63AEDE5DE07D4
:1026200051F238F4C2369DE5D90729F2DF91CF91F6
:1026300008959E012E5A3D4523303105B8F7BBCF92
:10264000809167028062C730FCE5DF0709F489C02A
:1026500008F4B1C080916702806483C0CD309CE5EE
:10266000D90709F4BAC070F4809167028E7FCB302D
:10267000FCE5DF0709F475C008F4A7C08091670284
:102680008D7F6FC0CF309CE5D90709F4B6C008F440
:10269000A8C0C031FCE5DF0709F4B3C0C131DC4597
:1026A00009F0B1CF809167028F7B5BC0C1159DE5BA
:1026B000D90709F4B4C098F5CB3FFCE5DF0709F46E
:1026C00072C0B8F4C4319CE5D90709F4B6C008F467
:1026D000A2C0C531DC4509F096CF8091670282FB2C
:1026E000992790F921E0922790FB82F990FB83F9DA
:1026F00038C0CD3F8CE5D80709F477C008F457C03F
:10270000CE3FECE5DE0709F474C080916802836077
:10271000CF3FDC4509F077CF8093680274CFC23693
:102720008DE5D80709F496C068F4C230EDE5DE0700
:1027300009F48CC008F477C0C330DD4509F063CFDD
:1027400080E085C0CE3A9DE5D907E9F068F4909124
:102750006702892F8E7F90FF8160C63ADD4509F0C0
:1027600052CF809367024FCFCF3A8DE5D80789F1DA
:10277000C03BDD4509F047CF90916802892F877FE4
:1027800093FF8860C9CF809168028860C5CF80912F
:1027900067028260E6CF809167028460E2CF809119
:1027A00067028860DECF809168028160B5CF80913A
:1027B00068028260B1CF809167028061D2CF0E94AF
:1027C000E405809167028068CCCF809167028C60BD
:1027D000C8CF80916802877F9FCF809167028B7FEF
:1027E000C0CF80916702877FBCCF809168028E7FC7
:1027F00093CF809168028D7F8FCF809167028F7E0B
:10280000B0CF809167028F7DACCF0E94E4058091AC
:1028100067028F77A6CF80916702837FA2CF8091D6
:1028200068028C7F79CF80916802982F9095917083
:102830008E7F892B90FB81F96FCF0E94E4059091E8
:102840006702892F97FB87F980588BCF81E00E9420
:10285000F90BD9CE90916702892F8F7E94FF80610A
:1028600080CF81E0E3CECF93DF93EB0186319C45AF
:1028700011F50E945F0A9A81992399F08A7A91E072
:1028800009F490E090933602811109C089E20E9418
:10289000370A0E94A00A80E0DF91CF91089585E376
:1028A000F6CF80913602811104C089E20E943F0A6E
:1028B000F0CF85E3FBCF81E0EFCF0F931F93CF9352
:1028C000DF93C42FD22FFC0182818823C9F040936B
:1028D00039020E94EF16909338028093370280E20B
:1028E0008C0F883040F4C77081E001C0880FCA9512
:1028F000EAF70E948603DF91CF911F910F9108950F
:1029000010913902141332C080913702909138022D
:102910000E940717883C910548F5C0E2CD0F1D17AE
:10292000B9F080E2810F883040F4177081E001C077
:10293000880F1A95EAF70E948D03C83048F481E0A9
:102940009D2F977001C0880F9A95EAF70E94860321
:10295000802F0E947D03C83070F6D77081E001C0DF
:10296000880FDA95EAF70E948D03C5CF80E28C0FBD
:10297000883008F6C77081E001C0880FCA95EAF771
:10298000F2CF0F939C01CB01243F4CE5340759F162
:10299000A8F4293DFCE53F0701F12A3D4CE5340749
:1029A000D1F1283D3C4591F406E221EE41EE68ED7F
:1029B0007CE50E945D1480E00F910895263FFCE5C0
:1029C0003F07E9F0B0F0273F3C45F9F0FC01828178
:1029D000882339F110923902EFCF07E225EE45EE58
:1029E00069ED7CE5E6CF06E221EE40EE64EF7CE5A2
:1029F000E0CF07E225EE44EE65EF7CE5DACF06E2B4
:102A000021EE42EE66EF7CE5D4CF07E225EE46EEFE
:102A100067EF7CE5CECF08E221E045EE6AED7CE58C
:102A2000C8CF81E0C9CF909383018093820108953C
:102A300090933F0280933E020895E0913E02F09110
:102A40003F02309729F00190F081E02D099508951B
:102A500080E00895E0913E02F0913F02309799F0B6
:102A600020911601222359F02091670227FF07C009
:102A7000DC012C9111962C93119726E02C93028067
:102A8000F381E02D09950895E0913E02F0913F0217
:102A9000309739F022E0DC012C930480F581E02DA1
:102AA0000995089520913C0230913D02281739077D
:102AB00071F090933D0280933C02E0913E02F091D0
:102AC0003F02309721F00680F781E02D09950895A7
:102AD00020913A0230913B022817390771F0909308
:102AE0003B0280933A02E0913E02F0913F02309720
:102AF00021F00084F185E02D09950895FC013296BE
:102B000080911601882321F0809167029EE187FF62
:102B100096E080E0915008F4089521912223D1F3AA
:102B20008F5FF8CF662301F1209116012223F1F087
:102B30002091670227FF1AC0462F46954695469575
:102B40004E3190F4677021E030E002C0220F331F55
:102B50006A95E2F7840F911DFC01828190E02823A1
:102B6000392381E0232B69F480E00895FC0132963B
:102B700008962191261721F0E817F907D1F7F4CF2D
:102B800081E008959C01FC0132969FEF80E0419125
:102B9000461751F09F3F19F4411101C0982F8F5FE4
:102BA0008630A9F79F3F09F40895290F311D97FD3D
:102BB0003A95F90162830895FC01329608962191B5
:102BC000261303C0DF0111971C92E817F907B9F724
:102BD0000895E62FE695E695E695EE3168F4E80F60
:102BE000F92FF11D677021E030E001C0220F6A95D6
:102BF000EAF78281822B82830895E62FE695E69597
:102C0000E695EE3170F4E80FF92FF11D677021E0C1
:102C100030E001C0220F6A95EAF7209582812823CF
:102C20002283089520911601222339F02091670212
:102C300027FF03C00E94E91508950E94C215089558
:102C400020911601222339F02091670227FF03C04B
:102C50000E94FD1508950E94DC150895FC0132962E
:102C600080911601882351F08091670287FF06C08A
:102C70008EE1DF011D928A95E9F7089586E0F9CF8C
:102C800046E050E00E948B1E21E0892B09F420E0F1
:102C9000822F089508950E944A160895811106C052
:102CA00081E0809340020E944B16089582E0F9CFA4
:102CB00083E0809340020E944B1608950E944E16B6
:102CC000089581E0809340020E944B1608950E946F
:102CD00061160895089508950E946B160895089549
:102CE00008950E946A160895CF930E946F160E945D
:102CF000AD0F0E947016C0E08C2F0E94F60E81115D
:102D000005C0CF5FC530C1F7CF91089581E0FCCFFA
:102D100085B7806885BF85B7806885BF08951F9295
:102D20001FB61F9211248F939F93AF93BF938091EF
:102D30004102811113C08091730290917402A0919D
:102D40007502B09176024196A11DB11D8093730268
:102D500090937402A0937502B0937602BF91AF91E5
:102D60009F918F911F901FBE1F90189580917B029D
:102D7000843031F10E9401021092410288E190E01A
:102D800020E40FB6F894A895809360000FBE2093BE
:102D9000600083B7817F846083BF83B7816083BF16
:102DA0007894889583B78E7F83BF0FB6F894A895E3
:102DB00080916000886180936000109260000FBE77
:102DC00008950E94E4050E940602089582E084BDF1
:102DD00093E095BD9AEF97BD80936E0008952FB74D
:102DE000F8948091730290917402A0917502B09151
:102DF00076022FBF08952FB7F894609173027091F7
:102E0000740280917502909176022FBF08959C0103
:102E10004FB7F8948091730290917402A09175025B
:102E2000B09176024FBF821B930B089578941F9246
:102E30001FB61F9211248F939F93AF93BF938091DE
:102E4000730290917402A0917502B091760201967E
:102E5000A11DB11D8093730290937402A09375021B
:102E6000B0937602BF91AF919F918F911F901FBE3B
:102E70001F90189587E797E79093010880930008C3
:102E800088E19AE00FB6F894A895809360000FBE91
:102E900090936000FFCF88E19AE00FB6F894A89570
:102EA000809360000FBE90936000FFCF8091650219
:102EB000089508959C0182E08093E9009FEF80913E
:102EC000E800915085FD06C085ED8A95F1F7000078
:102ED0009111F5CF8091E80085FF0CC050E040E0F3
:102EE00066E070E0C9010E949F198091E8008E772A
:102EF0008093E8000895CF93DF93EC018091160151
:102F00008823B1F18091670287FF32C060E282E0DE
:102F10008093E9008FEF9091E800815095FD06C005
:102F200095ED9A95F1F700008111F5CF8091E800B9
:102F300085FF1BC08091160170E050E040E08111D8
:102F400004C050E040E068E070E0CE010E949F19AC
:102F50008091E8008E778093E80080E2FE01A5E48E
:102F6000B2E001900D928A95E1F7DF91CF9108953B
:102F700068E081E0CDCF8093420270934402609379
:102F8000430280917B02843001F582E08093E90066
:102F90008FEF9091E800815095FD06C095ED9A95D0
:102FA000F1F700008111F5CF8091E80085FF0DC099
:102FB00050E040E063E070E082E492E00E949F19FC
:102FC0008091E8008E778093E8000895BC0184E04A
:102FD0000E94BB170895BC0183E00E94BB170895AF
:102FE00080917A02811109C00E942F1B0E948C1BC4
:102FF0008091E20084608093E200089510927A024A
:1030000008950E94611608956091770281E0611130
:1030100001C080E00E945816089590917B0281E0E3
:10302000943009F080E0609177020E945E16089566
:1030300042E061EC81E00E94AB1A42E261EC82E086
:103040000E94AB1A90917B0281E0943009F080E0FD
:10305000609177020E944E16089580917D02833020
:1030600009F461C030F48130D1F1823009F49EC09E
:1030700008958A3009F48AC08B3009F46FC0893012
:1030800009F050C080917C02813209F04BC08091E0
:10309000800290918102029708F044C08091E8007C
:1030A000877F8093E8008091E80082FF37C090918D
:1030B000F3008091F200029731F48091F1008130A9
:1030C00011F0863021F48091F100809365028091A7
:1030D000E8008B778093E8000E94DF1A23C080917C
:1030E0007C02813AF9F48091E800877F8093E800C0
:1030F0008091800290918102892B61F460E285E4E5
:1031000092E070E00E94EE198091E8008B77809346
:10311000E800089560E090E080E0F3CF80917B02CA
:103120008111C1CF089580917C02813AD9F78091B5
:10313000800290918102892BA9F78091E800877F16
:103140008093E8008091E80080FFFCCF8091160119
:103150008093F1008091E8008E77BCCF80917C0253
:10316000813201F78091800290918102892BD1F602
:103170008091E800877F8093E8000E94DF1A8091A9
:103180007E02809316010E94E405089580917C02DE
:10319000813241F68091E800877F8093E8000E94A9
:1031A000DF1A80917F0280936602089580917C02ED
:1031B000813A09F0B7CF8091E800877F8093E800DB
:1031C0008091E80080FFFCCF80916602C1CF84B778
:1031D000877F84BF0FB6F894A895809160008861BE
:1031E00080936000109260000FBE80E890E00FB600
:1031F000F89480936100909361000FBE0E9467165F
:1032000008950E942F1B0E948C1BE2EEF0E080814B
:103210008460808378940E940B1E08958AE091E078
:103220000E941815089580917B02853031F48091B9
:103230007B02853019F00E94E11608950E94B616AF
:1032400080917902882399F30E947416882379F378
:103250000E9489190E94E405EACF08950E9431195D
:103260000895292F33272330310519F168F42130CF
:10327000310509F444C02230310509F445C090E01D
:1032800080E030E020E025C02132310549F12232D2
:103290003105A9F780E490E02FEF31E06115710569
:1032A000C1F086EB90E029E431E06130710589F0EE
:1032B000E6CF99278130910581F0009729F0029798
:1032C000F1F6E4EDF0E002C0E8EFF0E0849190E088
:1032D0009F01FA01318320830895E6EEF0E0F6CFF6
:1032E00089E090E02EE031E06115710591F389E00D
:1032F00090E027E231E06130710559F3C0CF82E1FF
:1033000090E027E331E0E5CF8BE390E02CEF30E075
:10331000E0CF80E189BD82E189BD09B400FEFDCF27
:103320008091D8008F7D8093D8008091E0008260EA
:103330008093E0008091E00081FDFCCF0895AF9282
:10334000BF92CF92DF92FF920F931F93CF93DF93A1
:103350006C01EB018A010E94FE1AF82E811123C034
:103360000115110539F0F80180819181C81BD90B35
:10337000C80ED91EB12CA12C2097A9F08091E8008D
:1033800085FD22C08091E8008E778093E8000115CA
:103390001105A1F0F80180819181A80EB91EB182BA
:1033A000A08285E0F82E8F2DDF91CF911F910F9194
:1033B000FF90DF90CF90BF90AF9008950E94FE1ACB
:1033C0008823D1F2F82EEFCFF60181916F0180931F
:1033D000F1002197FFEFAF1ABF0ACECFFC01809119
:1033E00082029091830286179707A0F061157105FC
:1033F00029F49091E8009E779093E80090E06115A1
:10340000710551F4911108C08091E80082FF34C029
:1034100080E00895BC01F2CF80917B028823C1F146
:103420008530C1F18091E80083FD30C08091E800D3
:1034300082FDEACF8091E80080FFE1CF8091F30028
:103440002091F200382F6115710519F028303105EF
:1034500058F091E02830310509F090E02091E80023
:103460002E772093E800CBCF81918093F1006150BB
:1034700071092F5F3F4FE7CF80917B02882341F096
:10348000853041F08091E80083FFBECF81E0089550
:1034900082E0089583E00895FC018091820290917A
:1034A000830286179707A0F06115710529F48091B2
:1034B000E8008E778093E80090E06115710551F483
:1034C000911108C08091E80082FF35C080E0089526
:1034D000BC01F2CF80917B028823C9F18530C9F10C
:1034E0008091E80083FD31C08091E80082FDEACF41
:1034F0008091E80080FFE1CF8091F3002091F200FD
:10350000382F6115710519F02830310558F091E018
:103510002830310509F090E08091E8008E778093A3
:10352000E800CBCF84918093F1003196615071090E
:103530002F5F3F4FE6CF80917B02882341F085309B
:1035400041F08091E80083FFBDCF81E0089582E0E3
:10355000089583E00895982F973028F08F70809316
:10356000E90081E008959093E900242F762F50E040
:10357000981731F07091EC002091ED005091F0001F
:1035800021FD02C09F5FE8CF3091EB003E7F30937A
:10359000EB003091ED003D7F3093ED003091EB007A
:1035A00031603093EB007093EC002093ED0050936A
:1035B000F0002091EE0027FDE5CF80E00895809196
:1035C0007C0287FF13C08091E80082FF06C08091D3
:1035D000E8008B778093E80004C080917B02811122
:1035E000F2CF089580917B028823D9F38091E8007F
:1035F00080FFF8CF8091E8008E77ECCF2091E40037
:103600003091E50095E6A9012091EC00822F8170B0
:1036100020FF06C08091E80080FF06C080E008958A
:103620002091E80022FD1AC080917B02882389F056
:10363000853089F08091EB0085FD0FC02091E4007A
:103640003091E50042175307F9F29150E1F684E01A
:10365000089582E0089583E0089581E008950E942E
:103660009E1B0E94A61BE0EEF0E0808181608083BB
:10367000E8EDF0E080818F77808319BCA7EDB0E0A2
:103680008C918E7F8C9380818F7E808310927A02C2
:1036900008950F931F93CF93DF930E949E1B0E9468
:1036A000A61BC8EDD0E088818F77888388818068E9
:1036B000888388818F7D888319BC10927B02109249
:1036C0007702109279021092780200EE10E0F80171
:1036D00080818B7F808388818160888342E060E085
:1036E00080E00E94AB1AE1EEF0E080818E7F808363
:1036F000E2EEF0E080818160808380818860808359
:10370000F80180818E7F8083888180618883DF914A
:10371000CF911F910F910895E8EDF0E080818F7EA9
:103720008083E7EDF0E080818160808384E082BF68
:1037300081E080937A020E94491B0895E8EDF0E051
:1037400080818E7F80831092E20008951092DA00CB
:103750001092E10008951F920F920FB60F9211245C
:103760002F933F934F935F936F937F938F939F9389
:10377000AF93BF93EF93FF938091E10082FF0BC063
:103780008091E20082FF07C08091E1008B7F8093EF
:10379000E1000E940A1E8091DA0080FF19C080912A
:1037A000D80080FF15C08091DA008E7F8093DA0008
:1037B0008091D90080FF96C080E189BD82E189BDFA
:1037C00009B400FEFDCF81E080937B020E94F017D8
:1037D0008091E10080FF19C08091E20080FF15C058
:1037E0008091E2008E7F8093E2008091E200806110
:1037F0008093E2008091D80080628093D80019BC49
:1038000085E080937B020E9404188091E10084FF90
:103810002BC08091E20084FF27C080E189BD82E156
:1038200089BD89B5982F917080FFFBCF8091D8001A
:103830008F7D8093D8008091E1008F7E8093E1009E
:103840008091E2008F7E8093E2008091E2008160AF
:103850008093E20080917702882309F449C084E0D4
:1038600080937B020E940D188091E10083FF29C0A4
:103870008091E20083FF25C08091E100877F8093E3
:10388000E10082E080937B02109277028091E10058
:103890008E7F8093E1008091E2008E7F8093E20032
:1038A0008091E20080618093E20042E060E080E08D
:1038B0000E94AB1A8091F00088608093F0000E9413
:1038C0000118FF91EF91BF91AF919F918F917F91DF
:1038D0006F915F914F913F912F910F900FBE0F907D
:1038E0001F90189519BC10927B020E94FE1770CF92
:1038F0008091E30087FD93E090937B02B3CF1F920A
:103900000F920FB60F9211242F933F934F935F9313
:103910006F937F938F939F93AF93BF93CF93DF93D7
:10392000EF93FF93D091E900DF708091EC00C82FF6
:10393000C17080FDC0E81092E9008091F000877F9F
:103940008093F00078940E94C31C1092E90080914B
:10395000F00088608093F000CD2BCF70C093E90019
:10396000FF91EF91DF91CF91BF91AF919F918F9197
:103970007F916F915F914F913F912F910F900FBE6B
:103980000F901F901895AAE2B0E0E9ECFCE10C94CE
:103990004F1E8CE792E02091F100FC012193CF01B2
:1039A000F2E084389F07B9F70E942D188091E80053
:1039B00083FF1EC180917C0290917D029A3008F0B5
:1039C00017C1E92FF0E0EF50F14E0C943A1E803809
:1039D00099F0823809F00CC1809180028F70873095
:1039E00008F006C18093E9008091EB0085FB8827F1
:1039F00080F91092E90006C08091780290917902D6
:103A0000911182609091E800977F9093E8008093F5
:103A1000F1001092F1008091E8008E77E5C08823D4
:103A200009F4D3C0823009F0E3C080917E02811195
:103A3000D6C0809180028F702FEF280F263008F0BB
:103A4000D7C08093E9002091EB0020FFC8C09330DD
:103A500031F48091EB0080628093EB00C0C09091C4
:103A6000EB0090619093EB0021E030E001C0220F69
:103A70008A95EAF72093EA001092EA008091EB0021
:103A80008860EACF8111B4C010917E021F778091C7
:103A9000E3008078812B8093E3008091E800877FAA
:103AA0008093E8000E94DF1A8091E80080FFFCCF3D
:103AB0008091E30080688093E30082E0111183E04D
:103AC00080937B0295C08058823008F091C080912D
:103AD0007E0290917F028C3D23E09207A1F583E066
:103AE0008A838AE289834FB7F894DE01139620E037
:103AF0003EE051E2E32FF0E050935700E49120FFC5
:103B000003C0E295EF703F5FEF708E2F90E0EA30D8
:103B1000C0F0C7968D939D932F5F243159F74FBF07
:103B20008091E800877F8093E8006AE270E0CE0130
:103B300001960E94EE198091E8008B778093E8004F
:103B400057C0C096E7CF6091800270918102AE01AC
:103B50004F5F5F4F0E942E19BC01892B09F448C0AA
:103B60009091E800977F9093E80089819A810E9464
:103B70004C1AE1CF8038E1F58091E800877F80938F
:103B8000E800809177028093F10045CF811130C029
:103B900090917E02923060F58091E800877F80935B
:103BA000E800909377020E94DF1A809177028823C1
:103BB00011F084E005C08091E30087FDFACF81E039
:103BC00080937B020E94181813C080917E0281307E
:103BD00079F481E0933009F080E0809379021092CB
:103BE000E9008091E800877F8093E8000E94DF1A57
:103BF0008091E80083FF0AC08091E800877F80936E
:103C0000E8008091EB0080628093EB00AA96E3E0ED
:103C10000C946B1E0895CF9380917B028823A1F0B2
:103C2000C091E900CF709091EC00892F817090FDD8
:103C300080E8C82B1092E9008091E80083FD0E9483
:103C4000C31CCF70C093E900CF91089597FB072E56
:103C500016F4009407D077FD09D00E94771E07FC68
:103C600005D03EF4909581959F4F0895709561958C
:103C70007F4F0895EE0FFF1F0590F491E02D0994FA
:103C80002F923F924F925F926F927F928F929F926C
:103C9000AF92BF92CF92DF92EF92FF920F931F935A
:103CA000CF93DF93CDB7DEB7CA1BDB0B0FB6F8940B
:103CB000DEBF0FBECDBF09942A88398848885F844B
:103CC0006E847D848C849B84AA84B984C884DF80BC
:103CD000EE80FD800C811B81AA81B981CE0FD11DA0
:103CE0000FB6F894DEBF0FBECDBFED010895AA1B3D
:103CF000BB1B51E107C0AA1FBB1FA617B70710F0D7
:103D0000A61BB70B881F991F5A95A9F78095909508
:103D1000BC01CD010895FB01DC0104C08D9101902F
:103D2000801921F441505040C8F7881B990B089521
:103D3000FB01DC0102C001900D9241505040D8F7C8
:103D40000895F999FECF92BD81BDF89A992780B563
:103D50000895A8E1B0E042E050E00C94D51E262F73
:103D6000F999FECF92BD81BDF89A019700B4021671
:103D700039F01FBA20BD0FB6F894FA9AF99A0FBE1F
:103D800008950396272F0E94B01E0E94AF1E252F74
:103D90000E94B01E242F0C94B01E0196272F0E9463
:103DA000B01E0C94AF1EDC01CB01FC01F999FECFD3
:103DB00006C0F2BDE1BDF89A319600B40D924150B3
:103DC0005040B8F70895F894FFCFCF03CF03000415
:103DD00000048D04A9042F042F04B4042505340520
:103DE0003405E71C0F1DF81D0F1DF81D421D631D36
:063DF000F81DBA1DC61DFE
:103DF600F401280850011E0A140156177B175A179A
:103E0600EB17E617591701E200E900EA00B500B61C
:103E160000B700CD008301CC008A019201940121F4
:103E260002230224022502260227022A02B300B434
:103E3600006F007000818283E200E900EA00B500AD
:103E4600B600B700CD008301CC008A01920194012F
:103E56002102230224022502260227022A02B30097
:103E6600B4006F007000818283F4F5F6F7919094A8
:023E760066974D
:00000001FF
